{"address":"0xcEa6f09d8cE5d4173EA2dEB416B86cCEAA36aD3B","bytecode":"0x60806040526000805462ffffff60a01b191661017760a31b1790553480156200002757600080fd5b5060405162004c1938038062004c198339810160408190526200004a91620001c9565b600080546001600160a01b0319166001600160a01b038581169190911790915582908590829081166200009757604051631e4fbdf760e01b81526000600482015260240160405180910390fd5b620000a281620000c6565b50620000ae8162000118565b50620000bc90508162000162565b5050505062000226565b600180546001600160a01b038381166001600160a01b0319831681179093556040519116919082907f8be0079c531659141344cd1fd0a4f28419497f9722a3daafe3b4186f6b6457e090600090a35050565b600280546001600160a01b0319166001600160a01b0383169081179091556040517f7d5b70f43ce014e6429a5a008d4a39b49e0d74afc4eec87d6ecf23bee44a6f5090600090a250565b600a80546001600160a01b0319166001600160a01b0383169081179091556040517fc940884583f5b0b149156a39a5aa8a3dcc853aab9bbf64f0c88fc9fbc1a8e55e90600090a250565b80516001600160a01b0381168114620001c457600080fd5b919050565b60008060008060808587031215620001e057600080fd5b620001eb85620001ac565b9350620001fb60208601620001ac565b92506200020b60408601620001ac565b91506200021b60608601620001ac565b905092959194509250565b6149e380620002366000396000f3fe60806040526004361061018d5760003560e01c806377b1e1ce116100d5578063c600589311610084578063ea26752e11610061578063ea26752e146104c4578063f2fde38b146104e4578063f424eeb514610504578063faf9e0181461052457005b8063c600589314610454578063ca4c8b3114610474578063d28cbce8146104a457005b80639665b658116100b25780639665b658146103f45780639a01911914610414578063c1ddd6391461043457005b806377b1e1ce1461039457806379c24ebb146103b45780638da5cb5b146103d657005b80632ecad33b1161013c5780633989650f116101195780633989650f1461030957806357e0fc8d1461033f5780636f2d41cb1461035f578063715018a61461037f57005b80632ecad33b1461026a578063350157a8146102ae5780633887d28b146102cc57005b80630a2f52a61161016a5780630a2f52a6146101fd5780631738e2171461021d57806321901fa81461024a57005b80630283e5fa146101965780630853ac1c146101b657806308dacd3b146101cb57005b3661019457005b005b3480156101a257600080fd5b506101946101b1366004613edf565b610544565b3480156101c257600080fd5b50610194610655565b3480156101d757600080fd5b506101e0610669565b6040516001600160a01b0390911681526020015b60405180910390f35b34801561020957600080fd5b50610194610218366004613edf565b610682565b34801561022957600080fd5b5061023d610238366004613edf565b610a52565b6040516101f49190614034565b34801561025657600080fd5b50610194610265366004614109565b610d7a565b34801561027657600080fd5b506102a0610285366004614135565b6001600160a01b031660009081526004602052604090205490565b6040519081526020016101f4565b3480156102ba57600080fd5b506002546001600160a01b03166101e0565b3480156102d857600080fd5b506102ec6102e7366004613edf565b610ecc565b6040805193845260208401929092521515908201526060016101f4565b34801561031557600080fd5b506102a0610324366004614135565b6001600160a01b031660009081526005602052604090205490565b34801561034b57600080fd5b5061019461035a366004613edf565b610f1d565b34801561036b57600080fd5b5061019461037a366004613edf565b6110da565b34801561038b57600080fd5b50610194611866565b3480156103a057600080fd5b506101946103af366004614135565b611878565b3480156103c057600080fd5b506103c9611889565b6040516101f49190614152565b3480156103e257600080fd5b506001546001600160a01b03166101e0565b34801561040057600080fd5b5061019461040f366004614135565b611902565b34801561042057600080fd5b5061019461042f366004614330565b611913565b34801561044057600080fd5b5061019461044f366004614377565b611a3f565b34801561046057600080fd5b506000546101e0906001600160a01b031681565b34801561048057600080fd5b5061049461048f3660046143d8565b611a92565b60405190151581526020016101f4565b3480156104b057600080fd5b506102a06104bf366004613edf565b61208b565b3480156104d057600080fd5b506101946104df366004614109565b6120f2565b3480156104f057600080fd5b506101946104ff366004614135565b6122fd565b34801561051057600080fd5b5061019461051f366004614109565b612351565b34801561053057600080fd5b5061019461053f366004614135565b61241b565b6002546001600160a01b031633146105c95760405162461bcd60e51b815260206004820152603860248201527f4f6e6c794578656375746f72203a205b6f6e6c794578656375746f725d20416460448201527f6472657373206973206e6f7420616e206578656375746f72000000000000000060648201526084015b60405180910390fd5b6000818152600360205260408120600890810180547fffffffffffffffffffffffffffffffffffffffffffffffffffffffffffffff0016905580546001929061061390849061443e565b90915550506002546040516000916001600160a01b03169083907feaf50fdfc2dd0f0e3e225947d9b119a052749378f4cdc306b079ea00842806d8908490a450565b61065d612459565b610667600061249f565b565b600061067d600a546001600160a01b031690565b905090565b61068a612459565b60008181526003602090815260409182902082516101008101845281546001600160a01b039081168252845160608101865260018401805492831682527401000000000000000000000000000000000000000090920460ff16818601526002840180546109ae9794968701949293928401919061070690614451565b80601f016020809104026020016040519081016040528092919081815260200182805461073290614451565b801561077f5780601f106107545761010080835404028352916020019161077f565b820191906000526020600020905b81548152906001019060200180831161076257829003601f168201915b505050919092525050508152604080516060810182526003840180546001600160a01b038116835274010000000000000000000000000000000000000000900460ff1660208084019190915260048601805491909501949293919291840191906107e890614451565b80601f016020809104026020016040519081016040528092919081815260200182805461081490614451565b80156108615780601f1061083657610100808354040283529160200191610861565b820191906000526020600020905b81548152906001019060200180831161084457829003601f168201915b505050919092525050508152600582015460209091019060ff16600781111561088c5761088c613f7d565b600781111561089d5761089d613f7d565b815260200160068201548152602001600782015481526020016008820160009054906101000a900460ff16151515158152602001600982016040518060800160405290816000820180546108f090614451565b80601f016020809104026020016040519081016040528092919081815260200182805461091c90614451565b80156109695780601f1061093e57610100808354040283529160200191610969565b820191906000526020600020905b81548152906001019060200180831161094c57829003601f168201915b50505091835250506001919091015460ff8082161515602084015261010082041660408301526201000090046001600160a01b031660609091015290525060c0015190565b610a465760405162461bcd60e51b815260206004820152604360248201527f4443414163636f756e74203a205b556e7375627363726962655374726174656760448201527f795d20537472617465677920697320616c726561647920556e7375627363726960648201527f6265640000000000000000000000000000000000000000000000000000000000608482015260a4016105c0565b610a4f81612501565b50565b610a5a613e10565b60008281526003602090815260409182902082516101008101845281546001600160a01b039081168252845160608101865260018401805492831682527401000000000000000000000000000000000000000090920460ff168186015260028401805493969495870194919391840191610ad390614451565b80601f0160208091040260200160405190810160405280929190818152602001828054610aff90614451565b8015610b4c5780601f10610b2157610100808354040283529160200191610b4c565b820191906000526020600020905b815481529060010190602001808311610b2f57829003601f168201915b505050919092525050508152604080516060810182526003840180546001600160a01b038116835274010000000000000000000000000000000000000000900460ff166020808401919091526004860180549190950194929391929184019190610bb590614451565b80601f0160208091040260200160405190810160405280929190818152602001828054610be190614451565b8015610c2e5780601f10610c0357610100808354040283529160200191610c2e565b820191906000526020600020905b815481529060010190602001808311610c1157829003601f168201915b505050919092525050508152600582015460209091019060ff166007811115610c5957610c59613f7d565b6007811115610c6a57610c6a613f7d565b815260200160068201548152602001600782015481526020016008820160009054906101000a900460ff1615151515815260200160098201604051806080016040529081600082018054610cbd90614451565b80601f0160208091040260200160405190810160405280929190818152602001828054610ce990614451565b8015610d365780601f10610d0b57610100808354040283529160200191610d36565b820191906000526020600020905b815481529060010190602001808311610d1957829003601f168201915b50505091835250506001919091015460ff8082161515602084015261010082041660408301526201000090046001600160a01b031660609091015290525092915050565b610d82612459565b6001600160a01b038216600090815260046020526040902054811115610e105760405162461bcd60e51b815260206004820152603460248201527f4443414163636f756e74203a205b556e46756e644163636f756e745d2042616c60448201527f616e6365206f6620746f6b656e20746f206c6f7700000000000000000000000060648201526084016105c0565b6001600160a01b03821660009081526004602052604081208054839290610e3890849061443e565b90915550506040517fa9059cbb000000000000000000000000000000000000000000000000000000008152336004820152602481018290526001600160a01b0383169063a9059cbb906044016020604051808303816000875af1158015610ea3573d6000803e3d6000fd5b505050506040513d601f19601f82011682018060405250810190610ec791906144a4565b505050565b6000818152600760208181526040808420546003909252832060050154909291829160ff1690610f0f9085908390811115610f0957610f09613f7d565b906125dd565b925050811590509193909250565b610f25612459565b60008181526006602052604090205480610fa75760405162461bcd60e51b815260206004820152603a60248201527f5b4443414163636f756e745d203a205b556e57696e645265696e766573745d2060448201527f2d20204e6f20696e766573746d656e7420746f20756e77696e6400000000000060648201526084016105c0565b6000828152600360205260408082208151608081019092526009018054839261109392879282908290610fd990614451565b80601f016020809104026020016040519081016040528092919081815260200182805461100590614451565b80156110525780601f1061102757610100808354040283529160200191611052565b820191906000526020600020905b81548152906001019060200180831161103557829003601f168201915b50505091835250506001919091015460ff8082161515602084015261010082041660408301526201000090046001600160a01b031660609091015285612617565b91509150801515847f1dd27151631835dad107ba13bb502b6952532bee5624eee50073de9776aac2d4846040516110cc91815260200190565b60405180910390a350505050565b6110e2612459565b600081815260036020908152604080832081516101008101835281546001600160a01b039081168252835160608101855260018401805492831682527401000000000000000000000000000000000000000090920460ff1681870152600284018054939694959487019491939184019161115b90614451565b80601f016020809104026020016040519081016040528092919081815260200182805461118790614451565b80156111d45780601f106111a9576101008083540402835291602001916111d4565b820191906000526020600020905b8154815290600101906020018083116111b757829003601f168201915b505050919092525050508152604080516060810182526003840180546001600160a01b038116835274010000000000000000000000000000000000000000900460ff16602080840191909152600486018054919095019492939192918401919061123d90614451565b80601f016020809104026020016040519081016040528092919081815260200182805461126990614451565b80156112b65780601f1061128b576101008083540402835291602001916112b6565b820191906000526020600020905b81548152906001019060200180831161129957829003601f168201915b505050919092525050508152600582015460209091019060ff1660078111156112e1576112e1613f7d565b60078111156112f2576112f2613f7d565b815260200160068201548152602001600782015481526020016008820160009054906101000a900460ff161515151581526020016009820160405180608001604052908160008201805461134590614451565b80601f016020809104026020016040519081016040528092919081815260200182805461137190614451565b80156113be5780601f10611393576101008083540402835291602001916113be565b820191906000526020600020905b8154815290600101906020018083116113a157829003601f168201915b50505091835250506001919091015460ff8082161515602084015261010082041660408301526201000090046001600160a01b031660609091015290525060c0810151909150156114775760405162461bcd60e51b815260206004820152603f60248201527f4443414163636f756e74203a205b53756273637269626553747261746567795d60448201527f20537472617465677920697320616c726561647920537562736372696265640060648201526084016105c0565b60808101516114879060056144c1565b602080830151516001600160a01b031660009081526004909152604090205410156115405760405162461bcd60e51b815260206004820152604e60248201527f4443414163636f756e74203a205b53756273637269626553747261746567795d60448201527f204e65656420746f2068617665203520657865637574696f6e732066756e646560648201527f6420746f20737562736372696265000000000000000000000000000000000000608482015260a4016105c0565b60008281526003602090815260409182902082516101008101845281546001600160a01b039081168252845160608101865260018401805492831682527401000000000000000000000000000000000000000090920460ff1681860152600284018054611862979496870194929392840191906115bc90614451565b80601f01602080910402602001604051908101604052809291908181526020018280546115e890614451565b80156116355780601f1061160a57610100808354040283529160200191611635565b820191906000526020600020905b81548152906001019060200180831161161857829003601f168201915b505050919092525050508152604080516060810182526003840180546001600160a01b038116835274010000000000000000000000000000000000000000900460ff16602080840191909152600486018054919095019492939192918401919061169e90614451565b80601f01602080910402602001604051908101604052809291908181526020018280546116ca90614451565b80156117175780601f106116ec57610100808354040283529160200191611717565b820191906000526020600020905b8154815290600101906020018083116116fa57829003601f168201915b505050919092525050508152600582015460209091019060ff16600781111561174257611742613f7d565b600781111561175357611753613f7d565b815260200160068201548152602001600782015481526020016008820160009054906101000a900460ff16151515158152602001600982016040518060800160405290816000820180546117a690614451565b80601f01602080910402602001604051908101604052809291908181526020018280546117d290614451565b801561181f5780601f106117f45761010080835404028352916020019161181f565b820191906000526020600020905b81548152906001019060200180831161180257829003601f168201915b50505091835250506001919091015460ff8082161515602084015261010082041660408301526201000090046001600160a01b03166060909101529052506127a4565b5050565b61186e612459565b61066760006128ba565b611880612459565b610a4f81612924565b606061189d600a546001600160a01b031690565b6001600160a01b0316630ca750446040518163ffffffff1660e01b8152600401600060405180830381865afa1580156118da573d6000803e3d6000fd5b505050506040513d6000823e601f3d908101601f1916820160405261067d91908101906144d8565b61190a612459565b610a4f8161249f565b61191b612459565b8060200151156119f757600082815260036020526040902081518291600901908190611947908261459d565b5060208201516001909101805460408401516060909401516001600160a01b031662010000027fffffffffffffffffffff0000000000000000000000000000000000000000ffff60ff95909516610100027fffffffffffffffffffffffffffffffffffffffffffffffffffffffffffff00ff941515949094167fffffffffffffffffffffffffffffffffffffffffffffffffffffffffffff00009092169190911792909217929092161790555050565b6040805160006080820181815260a08301845282526020808301829052828401829052306060840152858252600390529190912081516009909101908190611947908261459d565b611a47612459565b611a58611a5384614748565b612986565b8115611a7b57611a7b611a75611a6d85614748565b602001515190565b83612351565b8015610ec757610ec7611a8d84614748565b6127a4565b6002546000906001600160a01b03163314611b155760405162461bcd60e51b815260206004820152603860248201527f4f6e6c794578656375746f72203a205b6f6e6c794578656375746f725d20416460448201527f6472657373206973206e6f7420616e206578656375746f72000000000000000060648201526084016105c0565b6000838152600760208181526040808420546003909252909220600501548592611b5492909160ff1690811115611b4e57611b4e613f7d565b90612cf1565b611bc65760405162461bcd60e51b815260206004820152603160248201527f4443414163636f756e74203a205b696e57696e646f775d20537472617465677960448201527f20496e74657276616c206e6f74206d657400000000000000000000000000000060648201526084016105c0565b60008481526003602090815260409182902082516101008101845281546001600160a01b039081168252845160608101865260018401805492831682527401000000000000000000000000000000000000000090920460ff1681860152600284018054611c429794968701949293928401919061070690614451565b611cb45760405162461bcd60e51b815260206004820152602d60248201527f4443414163636f756e74203a205b457865637574655d2053747261746567792060448201527f6973206e6f74206163746976650000000000000000000000000000000000000060648201526084016105c0565b6000848152600360209081526040808320600681015482516101008101845282546001600160a01b039081168252845160608101865260018501805492831682527401000000000000000000000000000000000000000090920460ff168188015260028501805494986004989097611fe4979596918701949290840191611d3a90614451565b80601f0160208091040260200160405190810160405280929190818152602001828054611d6690614451565b8015611db35780601f10611d8857610100808354040283529160200191611db3565b820191906000526020600020905b815481529060010190602001808311611d9657829003601f168201915b505050919092525050508152604080516060810182526003840180546001600160a01b038116835274010000000000000000000000000000000000000000900460ff166020808401919091526004860180549190950194929391929184019190611e1c90614451565b80601f0160208091040260200160405190810160405280929190818152602001828054611e4890614451565b8015611e955780601f10611e6a57610100808354040283529160200191611e95565b820191906000526020600020905b815481529060010190602001808311611e7857829003601f168201915b505050919092525050508152600582015460209091019060ff166007811115611ec057611ec0613f7d565b6007811115611ed157611ed1613f7d565b815260200160068201548152602001600782015481526020016008820160009054906101000a900460ff1615151515815260200160098201604051806080016040529081600082018054611f2490614451565b80601f0160208091040260200160405190810160405280929190818152602001828054611f5090614451565b8015611f9d5780601f10611f7257610100808354040283529160200191611f9d565b820191906000526020600020905b815481529060010190602001808311611f8057829003601f168201915b50505091835250506001919091015460ff8082161515602084015261010082041660408301526001600160a01b036201000090910416606090910152905250602001515190565b6001600160a01b03166001600160a01b031681526020019081526020016000205410156120795760405162461bcd60e51b815260206004820152602b60248201527f4443414163636f756e74203a205b457865637574655d20426173652042616c6160448201527f6e636520746f6f206c6f7700000000000000000000000000000000000000000060648201526084016105c0565b6120838484612d05565b949350505050565b60006120df6040518060400160405280601481526020017f476f74205265696e766573742042616c616e636500000000000000000000000081525060066000858152602001908152602001600020546131f0565b5060009081526006602052604090205490565b6120fa612459565b6001600160a01b0382166000908152600560205260409020548111156121885760405162461bcd60e51b815260206004820152603760248201527f4443414163636f756e74203a205b5769746864726177536176696e67735d204260448201527f616c616e6365206f6620746f6b656e20746f6f206c6f7700000000000000000060648201526084016105c0565b6001600160a01b038216600090815260056020526040812080548392906121b090849061443e565b90915550600090506001600160a01b0383166121fd57604051339083156108fc029084906000818181858888f193505050501580156121f3573d6000803e3d6000fd5b506001905061228a565b6040517fa9059cbb000000000000000000000000000000000000000000000000000000008152336004820152602481018390526001600160a01b0384169063a9059cbb906044016020604051808303816000875af1158015612263573d6000803e3d6000fd5b505050506040513d601f19601f8201168201806040525081019061228791906144a4565b90505b80610ec75760405162461bcd60e51b815260206004820152603060248201527f5b4443414163636f756e745d203a205b5769746864726177536176696e67735d60448201527f205472616e73666572206661696c65640000000000000000000000000000000060648201526084016105c0565b612305612459565b6001600160a01b038116612348576040517f1e4fbdf7000000000000000000000000000000000000000000000000000000008152600060048201526024016105c0565b610a4f816128ba565b612359612459565b6040517f23b872dd000000000000000000000000000000000000000000000000000000008152336004820152306024820152604481018290526001600160a01b038316906323b872dd906064016020604051808303816000875af11580156123c5573d6000803e3d6000fd5b505050506040513d601f19601f820116820180604052508101906123e991906144a4565b506001600160a01b03821660009081526004602052604081208054839290612412908490614822565b90915550505050565b612423612459565b600080547fffffffffffffffffffffffff0000000000000000000000000000000000000000166001600160a01b03831617905550565b6001546001600160a01b03163314610667576040517f118cdaa70000000000000000000000000000000000000000000000000000000081523360048201526024016105c0565b600280547fffffffffffffffffffffffff0000000000000000000000000000000000000000166001600160a01b0383169081179091556040517f7d5b70f43ce014e6429a5a008d4a39b49e0d74afc4eec87d6ecf23bee44a6f5090600090a250565b600254600082815260036020526040908190206005015490517f6745b3e10000000000000000000000000000000000000000000000000000000081526001600160a01b0390921691636745b3e191612565913091869160ff90911690600401614835565b600060405180830381600087803b15801561257f57600080fd5b505af1158015612593573d6000803e3d6000fd5b5050506000828152600360205260408120600890810180547fffffffffffffffffffffffffffffffffffffffffffffffffffffffffffffff00169055805492509061061383614859565b6000806125e984613263565b6125f39084614822565b905080421161260b57612606428261443e565b612083565b60009150505b92915050565b600a546040516000918291829182916001600160a01b03909116907fbcb9236e0000000000000000000000000000000000000000000000000000000090612664908990899060240161488e565b60408051601f198184030181529181526020820180517bffffffffffffffffffffffffffffffffffffffffffffffffffffffff167fffffffff000000000000000000000000000000000000000000000000000000009094169390931790925290516126cf91906148b0565b600060405180830381855af49150503d806000811461270a576040519150601f19603f3d011682016040523d82523d6000602084013e61270f565b606091505b50915091508115612799578080602001905181019061272e91906148cc565b60008981526006602052604081208054939750919550879261275190849061443e565b90915550506000878152600360208181526040808420909201546001600160a01b03168352600590528120805487929061278c908490614822565b9091555061279c92505050565b50505b935093915050565b6002546040517fab6319b50000000000000000000000000000000000000000000000000000000081526001600160a01b039091169063ab6319b5906127ed908490600401614034565b600060405180830381600087803b15801561280757600080fd5b505af115801561281b573d6000803e3d6000fd5b5050505060a08101516000908152600360205260408120600890810180547fffffffffffffffffffffffffffffffffffffffffffffffffffffffffffffff001660019081179091558154909290612873908490614822565b909155505060025460a08201516040516001926001600160a01b031691907feaf50fdfc2dd0f0e3e225947d9b119a052749378f4cdc306b079ea00842806d890600090a450565b600180546001600160a01b038381167fffffffffffffffffffffffff0000000000000000000000000000000000000000831681179093556040519116919082907f8be0079c531659141344cd1fd0a4f28419497f9722a3daafe3b4186f6b6457e090600090a35050565b600a80547fffffffffffffffffffffffff0000000000000000000000000000000000000000166001600160a01b0383169081179091556040517fc940884583f5b0b149156a39a5aa8a3dcc853aab9bbf64f0c88fc9fbc1a8e55e90600090a250565b61298f816133d0565b612a015760405162461bcd60e51b815260206004820152603260248201527f4443414163636f756e74203a205b536574757053747261746567795d20496e7660448201527f616c69642073747261746567792064617461000000000000000000000000000060648201526084016105c0565b60098054906000612a11836148f1565b909155505060095460a08201819052308252600060c0830181905290815260036020908152604091829020835181546001600160a01b039182167fffffffffffffffffffffffff00000000000000000000000000000000000000009091161782558285015180516001840180549583015160ff1674010000000000000000000000000000000000000000027fffffffffffffffffffffff0000000000000000000000000000000000000000009096169190931617939093178155928201518493919291906002840190612ae4908261459d565b5050506040828101518051600384018054602084015160ff1674010000000000000000000000000000000000000000027fffffffffffffffffffffff0000000000000000000000000000000000000000009091166001600160a01b0390931692909217919091178155918101519091906004840190612b63908261459d565b50505060608201516005820180547fffffffffffffffffffffffffffffffffffffffffffffffffffffffffffffff00166001836007811115612ba757612ba7613f7d565b02179055506080820151600682015560a0820151600782015560c08201516008820180547fffffffffffffffffffffffffffffffffffffffffffffffffffffffffffffff001691151591909117905560e0820151805160098301908190612c0e908261459d565b506020820151600190910180546040808501516060909501516001600160a01b031662010000027fffffffffffffffffffff0000000000000000000000000000000000000000ffff60ff96909616610100027fffffffffffffffffffffffffffffffffffffffffffffffffffffffffffff00ff951515959095167fffffffffffffffffffffffffffffffffffffffffffffffffffffffffffff00009093169290921793909317939093169290921790915560095490519092507f019c06b860251593f8cc023cca35c7c482867df58804fd2963b3aebe5e7f8ef89150600090a250565b6000612cfd83836125dd565b159392505050565b60008281526007602090815260408083204290556003825280832081516101008101835281546001600160a01b039081168252835160608101855260018401805492831682527401000000000000000000000000000000000000000090920460ff1681870152600284018054889794969487019492939284019190612d8990614451565b80601f0160208091040260200160405190810160405280929190818152602001828054612db590614451565b8015612e025780601f10612dd757610100808354040283529160200191612e02565b820191906000526020600020905b815481529060010190602001808311612de557829003601f168201915b505050919092525050508152604080516060810182526003840180546001600160a01b038116835274010000000000000000000000000000000000000000900460ff166020808401919091526004860180549190950194929391929184019190612e6b90614451565b80601f0160208091040260200160405190810160405280929190818152602001828054612e9790614451565b8015612ee45780601f10612eb957610100808354040283529160200191612ee4565b820191906000526020600020905b815481529060010190602001808311612ec757829003601f168201915b505050919092525050508152600582015460209091019060ff166007811115612f0f57612f0f613f7d565b6007811115612f2057612f20613f7d565b815260200160068201548152602001600782015481526020016008820160009054906101000a900460ff1615151515815260200160098201604051806080016040529081600082018054612f7390614451565b80601f0160208091040260200160405190810160405280929190818152602001828054612f9f90614451565b8015612fec5780601f10612fc157610100808354040283529160200191612fec565b820191906000526020600020905b815481529060010190602001808311612fcf57829003601f168201915b50505091835250506001919091015460ff8082161515602084015261010082041660408301526201000090046001600160a01b031660609091015290525060808101519091506000906130449061ffff861690613439565b90506000818360800151613058919061443e565b905060008061307285602081015151604090910151519091565b9092509050831561308757613087848361344c565b6130918284613472565b50600061309f838386613571565b9050600081156131e05760008760e001516020015115613107576130c78860e0015184613935565b604051828152909350909150821515908c907ff62a807457f5a4e65b520a759ff4c3c3977dcafd5864191f95426e9366b793569060200160405180910390a35b81156131365760008b8152600660205260408120805483929061312b908490614822565b909155506131649050565b6001600160a01b0384166000908152600560205260408120805485929061315e908490614822565b90915550505b60808801516001600160a01b0386166000908152600460205260408120805490919061319190849061443e565b9091555050604051821515815283908c907ff062e3202b961c4181d7be50c794a184dd3d6747ba3d5c3f1a43516410f248709060200160405180910390a3600198505050505050505050612611565b6000975050505050505050612611565b6118628282604051602401613206929190614929565b60408051601f198184030181529190526020810180517bffffffffffffffffffffffffffffffffffffffffffffffffffffffff167fb60e72cc00000000000000000000000000000000000000000000000000000000179052613ae5565b60008082600781111561327857613278613f7d565b036132855750603c919050565b600182600781111561329957613299613f7d565b036132aa57612611603c60056144c1565b60028260078111156132be576132be613f7d565b036132cd575062015180919050565b60038260078111156132e1576132e1613f7d565b036132f4576126116201518060026144c1565b600482600781111561330857613308613f7d565b0361331b576126116201518060036144c1565b600582600781111561332f5761332f613f7d565b0361333e575062093a80919050565b600682600781111561335257613352613f7d565b036133655761261162093a8060026144c1565b600782600781111561337957613379613f7d565b0361338857506224ea00919050565b60405162461bcd60e51b815260206004820152601e60248201527f4443415374726174656779203a20496e76616c696420696e74657276616c000060448201526064016105c0565b60008060079050600081846060015160078111156133f0576133f0613f7d565b855191101591506001600160a01b03161580159061341b57506020840151516001600160a01b031615155b801561342b575060008460800151115b801561208357509392505050565b60006134458383613aee565b9392505050565b6118626134616002546001600160a01b031690565b6001600160a01b0383169084613b22565b6000805461348b9084906001600160a01b031684613ba2565b905080612611576000546040517f095ea7b30000000000000000000000000000000000000000000000000000000081526001600160a01b039182166004820152602481018490529084169063095ea7b3906044016020604051808303816000875af11580156134fe573d6000803e3d6000fd5b505050506040513d601f19601f8201168201806040525081019061352291906144a4565b9050806126115760405162461bcd60e51b815260206004820152601960248201527f5377617020416c6c6f77616e636520536574204661696c65640000000000000060448201526064016105c0565b60006001600160a01b038316613822576000546040805160e0810182526001600160a01b03878116825282517f4aa4a4fc00000000000000000000000000000000000000000000000000000000815292519316926304e45aaf926020808401928692634aa4a4fc9260048083019391928290030181865afa1580156135fa573d6000803e3d6000fd5b505050506040513d601f19601f8201168201806040525081019061361e919061493c565b6001600160a01b031681526000805462ffffff7401000000000000000000000000000000000000000090910416602083015230604080840191909152606083018890526080830182905260a090920152517fffffffff0000000000000000000000000000000000000000000000000000000060e084901b1681526137049190600401600060e0820190506001600160a01b0380845116835280602085015116602084015262ffffff60408501511660408401528060608501511660608401526080840151608084015260a084015160a08401528060c08501511660c08401525092915050565b6020604051808303816000875af1158015613723573d6000803e3d6000fd5b505050506040513d601f19601f820116820180604052508101906137479190614959565b905060008054906101000a90046001600160a01b03166001600160a01b0316634aa4a4fc6040518163ffffffff1660e01b8152600401602060405180830381865afa15801561379a573d6000803e3d6000fd5b505050506040513d601f19601f820116820180604052508101906137be919061493c565b6001600160a01b0316632e1a7d4d826040518263ffffffff1660e01b81526004016137eb91815260200190565b600060405180830381600087803b15801561380557600080fd5b505af1158015613819573d6000803e3d6000fd5b50505050613445565b600080546040805160e0810182526001600160a01b0388811682528781166020830190815262ffffff74010000000000000000000000000000000000000000860481168486019081523060608601908152608086018b815260a087018a815260c088019a8b5297517f04e45aaf000000000000000000000000000000000000000000000000000000008152965186166004880152935185166024870152905190911660448501525182166064840152516084830152915160a48201529251811660c484015216906304e45aaf9060e4016020604051808303816000875af1158015613911573d6000803e3d6000fd5b505050506040513d601f19601f820116820180604052508101906120839190614959565b600080600a60009054906101000a90046001600160a01b03166001600160a01b03166322f3e2d46040518163ffffffff1660e01b8152600401602060405180830381865afa15801561398b573d6000803e3d6000fd5b505050506040513d601f19601f820116820180604052508101906139af91906144a4565b15613ad757600a5460405160009182916001600160a01b03909116907f454f002a00000000000000000000000000000000000000000000000000000000906139fd908990899060240161488e565b60408051601f198184030181529181526020820180517bffffffffffffffffffffffffffffffffffffffffffffffffffffffff167fffffffff00000000000000000000000000000000000000000000000000000000909416939093179092529051613a6891906148b0565b600060405180830381855af49150503d8060008114613aa3576040519150601f19603f3d011682016040523d82523d6000602084013e613aa8565b606091505b50915091508115613ad45780806020019051810190613ac791906148cc565b9094509250613ade915050565b50505b5060009050805b9250929050565b610a4f81613c3a565b600060018361ffff161015613b0557506000612611565b6000612710613b1861ffff8616856144c1565b6120839190614972565b604080516001600160a01b038416602482015260448082018490528251808303909101815260649091019091526020810180517bffffffffffffffffffffffffffffffffffffffffffffffffffffffff167fa9059cbb00000000000000000000000000000000000000000000000000000000179052610ec7908490613c5b565b6040517fdd62ed3e0000000000000000000000000000000000000000000000000000000081523060048201526001600160a01b038381166024830152600091839186169063dd62ed3e90604401602060405180830381865afa158015613c0c573d6000803e3d6000fd5b505050506040513d601f19601f82011682018060405250810190613c309190614959565b1015949350505050565b60006a636f6e736f6c652e6c6f679050600080835160208501845afa505050565b6000613c706001600160a01b03841683613cd7565b90508051600014158015613c95575080806020019051810190613c9391906144a4565b155b15610ec7576040517f5274afe70000000000000000000000000000000000000000000000000000000081526001600160a01b03841660048201526024016105c0565b60606134458383600084600080856001600160a01b03168486604051613cfd91906148b0565b60006040518083038185875af1925050503d8060008114613d3a576040519150601f19603f3d011682016040523d82523d6000602084013e613d3f565b606091505b5091509150613d4f868383613d59565b9695505050505050565b606082613d6e57613d6982613dce565b613445565b8151158015613d8557506001600160a01b0384163b155b15613dc7576040517f9996b3150000000000000000000000000000000000000000000000000000000081526001600160a01b03851660048201526024016105c0565b5080613445565b805115613dde5780518082602001fd5b6040517f1425ea4200000000000000000000000000000000000000000000000000000000815260040160405180910390fd5b60405180610100016040528060006001600160a01b03168152602001613e5c604051806060016040528060006001600160a01b03168152602001600060ff168152602001606081525090565b815260408051606080820183526000808352602083810191909152928201529101908152602001600081526020016000815260200160008152602001600015158152602001613eda604051806080016040528060608152602001600015158152602001600060ff16815260200160006001600160a01b031681525090565b905290565b600060208284031215613ef157600080fd5b5035919050565b60005b83811015613f13578181015183820152602001613efb565b50506000910152565b60008151808452613f34816020860160208601613ef8565b601f01601f19169290920160200192915050565b6001600160a01b03815116825260ff602082015116602083015260006040820151606060408501526120836060850182613f1c565b7f4e487b7100000000000000000000000000000000000000000000000000000000600052602160045260246000fd5b60088110613fe3577f4e487b7100000000000000000000000000000000000000000000000000000000600052602160045260246000fd5b9052565b6000815160808452613ffc6080850182613f1c565b905060208301511515602085015260ff60408401511660408501526001600160a01b0360608401511660608501528091505092915050565b6020815261404e6020820183516001600160a01b03169052565b6000602083015161010080604085015261406c610120850183613f48565b91506040850151601f198086850301606087015261408a8483613f48565b9350606087015191506140a06080870183613fac565b608087015160a087015260a087015160c087015260c087015191506140c960e087018315159052565b60e0870151915080868503018387015250613d4f8382613fe7565b6001600160a01b0381168114610a4f57600080fd5b8035614104816140e4565b919050565b6000806040838503121561411c57600080fd5b8235614127816140e4565b946020939093013593505050565b60006020828403121561414757600080fd5b8135613445816140e4565b6020815260006134456020830184613f1c565b7f4e487b7100000000000000000000000000000000000000000000000000000000600052604160045260246000fd5b604051610100810167ffffffffffffffff811182821017156141b8576141b8614165565b60405290565b604051601f8201601f1916810167ffffffffffffffff811182821017156141e7576141e7614165565b604052919050565b600067ffffffffffffffff82111561420957614209614165565b50601f01601f191660200190565b600061422a614225846141ef565b6141be565b905082815283838301111561423e57600080fd5b828260208301376000602084830101529392505050565b8015158114610a4f57600080fd5b803561410481614255565b803560ff8116811461410457600080fd5b60006080828403121561429157600080fd5b6040516080810167ffffffffffffffff82821081831117156142b5576142b5614165565b8160405282935084359150808211156142cd57600080fd5b508301601f810185136142df57600080fd5b6142ee85823560208401614217565b82525060208301356142ff81614255565b60208201526143106040840161426e565b60408201526060830135614323816140e4565b6060919091015292915050565b6000806040838503121561434357600080fd5b82359150602083013567ffffffffffffffff81111561436157600080fd5b61436d8582860161427f565b9150509250929050565b60008060006060848603121561438c57600080fd5b833567ffffffffffffffff8111156143a357600080fd5b840161010081870312156143b657600080fd5b92506020840135915060408401356143cd81614255565b809150509250925092565b600080604083850312156143eb57600080fd5b82359150602083013561ffff8116811461440457600080fd5b809150509250929050565b7f4e487b7100000000000000000000000000000000000000000000000000000000600052601160045260246000fd5b818103818111156126115761261161440f565b600181811c9082168061446557607f821691505b60208210810361449e577f4e487b7100000000000000000000000000000000000000000000000000000000600052602260045260246000fd5b50919050565b6000602082840312156144b657600080fd5b815161344581614255565b80820281158282048414176126115761261161440f565b6000602082840312156144ea57600080fd5b815167ffffffffffffffff81111561450157600080fd5b8201601f8101841361451257600080fd5b8051614520614225826141ef565b81815285602083850101111561453557600080fd5b614546826020830160208601613ef8565b95945050505050565b601f821115610ec757600081815260208120601f850160051c810160208610156145765750805b601f850160051c820191505b8181101561459557828155600101614582565b505050505050565b815167ffffffffffffffff8111156145b7576145b7614165565b6145cb816145c58454614451565b8461454f565b602080601f83116001811461461e57600084156145e85750858301515b7fffffffffffffffffffffffffffffffffffffffffffffffffffffffffffffffff600386901b1c1916600185901b178555614595565b600085815260208120601f198616915b8281101561464d5788860151825594840194600190910190840161462e565b508582101561468957878501517fffffffffffffffffffffffffffffffffffffffffffffffffffffffffffffffff600388901b60f8161c191681555b5050505050600190811b01905550565b6000606082840312156146ab57600080fd5b6040516060810167ffffffffffffffff82821081831117156146cf576146cf614165565b81604052829350843591506146e3826140e4565b8183526146f26020860161426e565b6020840152604085013591508082111561470b57600080fd5b508301601f8101851361471d57600080fd5b61472c85823560208401614217565b6040830152505092915050565b80356008811061410457600080fd5b6000610100823603121561475b57600080fd5b614763614194565b61476c836140f9565b8152602083013567ffffffffffffffff8082111561478957600080fd5b61479536838701614699565b602084015260408501359150808211156147ae57600080fd5b6147ba36838701614699565b60408401526147cb60608601614739565b60608401526080850135608084015260a085013560a08401526147f060c08601614263565b60c084015260e085013591508082111561480957600080fd5b506148163682860161427f565b60e08301525092915050565b808201808211156126115761261161440f565b6001600160a01b038416815260208101839052606081016120836040830184613fac565b6000816148685761486861440f565b507fffffffffffffffffffffffffffffffffffffffffffffffffffffffffffffffff0190565b6040815260006148a16040830185613fe7565b90508260208301529392505050565b600082516148c2818460208701613ef8565b9190910192915050565b600080604083850312156148df57600080fd5b82519150602083015161440481614255565b60007fffffffffffffffffffffffffffffffffffffffffffffffffffffffffffffffff82036149225761492261440f565b5060010190565b6040815260006148a16040830185613f1c565b60006020828403121561494e57600080fd5b8151613445816140e4565b60006020828403121561496b57600080fd5b5051919050565b6000826149a8577f4e487b7100000000000000000000000000000000000000000000000000000000600052601260045260246000fd5b50049056fea2646970667358221220647e72266bfdbab866feff53a429bb3ffc7979946b669418fc88fb4071eacf8364736f6c63430008140033","abi":[{"inputs":[{"internalType":"address","name":"executorAddress_","type":"address"},{"internalType":"address","name":"swapRouter_","type":"address"},{"internalType":"address","name":"owner_","type":"address"},{"internalType":"address","name":"reinvestLibraryContract_","type":"address"}],"stateMutability":"nonpayable","type":"constructor"},{"inputs":[{"internalType":"address","name":"target","type":"address"}],"name":"AddressEmptyCode","type":"error"},{"inputs":[{"internalType":"address","name":"account","type":"address"}],"name":"AddressInsufficientBalance","type":"error"},{"inputs":[],"name":"FailedInnerCall","type":"error"},{"inputs":[{"internalType":"address","name":"owner","type":"address"}],"name":"OwnableInvalidOwner","type":"error"},{"inputs":[{"internalType":"address","name":"account","type":"address"}],"name":"OwnableUnauthorizedAccount","type":"error"},{"inputs":[{"internalType":"address","name":"token","type":"address"}],"name":"SafeERC20FailedOperation","type":"error"},{"anonymous":false,"inputs":[{"indexed":true,"internalType":"address","name":"newAddress_","type":"address"}],"name":"ExecutorAddressChange","type":"event"},{"anonymous":false,"inputs":[{"indexed":true,"internalType":"address","name":"previousOwner","type":"address"},{"indexed":true,"internalType":"address","name":"newOwner","type":"address"}],"name":"OwnershipTransferred","type":"event"},{"anonymous":false,"inputs":[{"indexed":true,"internalType":"uint256","name":"strategyId_","type":"uint256"},{"indexed":true,"internalType":"bool","name":"success","type":"bool"},{"indexed":false,"internalType":"uint256","name":"amountReturned","type":"uint256"}],"name":"ReinvestExecuted","type":"event"},{"anonymous":false,"inputs":[{"indexed":true,"internalType":"address","name":"newLibraryAddress","type":"address"}],"name":"ReinvestLibraryChanged","type":"event"},{"anonymous":false,"inputs":[{"indexed":true,"internalType":"uint256","name":"strategyId","type":"uint256"},{"indexed":false,"internalType":"uint256","name":"amount","type":"uint256"},{"indexed":true,"internalType":"bool","name":"success","type":"bool"}],"name":"ReinvestUnwound","type":"event"},{"anonymous":false,"inputs":[{"indexed":true,"internalType":"uint256","name":"strategyId_","type":"uint256"}],"name":"StrategyCreated","type":"event"},{"anonymous":false,"inputs":[{"indexed":true,"internalType":"uint256","name":"strategyId_","type":"uint256"},{"indexed":true,"internalType":"uint256","name":"amountIn_","type":"uint256"},{"indexed":false,"internalType":"bool","name":"reInvested_","type":"bool"}],"name":"StrategyExecuted","type":"event"},{"anonymous":false,"inputs":[{"indexed":true,"internalType":"uint256","name":"strategyId_","type":"uint256"},{"indexed":true,"internalType":"address","name":"executor_","type":"address"},{"indexed":true,"internalType":"bool","name":"subscribed_","type":"bool"}],"name":"StrategySubscription","type":"event"},{"stateMutability":"payable","type":"fallback"},{"inputs":[{"internalType":"address","name":"token_","type":"address"},{"internalType":"uint256","name":"amount_","type":"uint256"}],"name":"AddFunds","outputs":[],"stateMutability":"nonpayable","type":"function"},{"inputs":[{"internalType":"uint256","name":"strategyId_","type":"uint256"},{"internalType":"uint16","name":"feeAmount_","type":"uint16"}],"name":"Execute","outputs":[{"internalType":"bool","name":"","type":"bool"}],"stateMutability":"nonpayable","type":"function"},{"inputs":[{"internalType":"uint256","name":"strategyId_","type":"uint256"}],"name":"ExecutorDeactivate","outputs":[],"stateMutability":"nonpayable","type":"function"},{"inputs":[],"name":"SWAP_ROUTER","outputs":[{"internalType":"contract ISwapRouter","name":"","type":"address"}],"stateMutability":"view","type":"function"},{"inputs":[{"components":[{"internalType":"address","name":"accountAddress","type":"address"},{"components":[{"internalType":"address","name":"tokenAddress","type":"address"},{"internalType":"uint8","name":"decimals","type":"uint8"},{"internalType":"string","name":"ticker","type":"string"}],"internalType":"struct IDCADataStructures.TokenData","name":"baseToken","type":"tuple"},{"components":[{"internalType":"address","name":"tokenAddress","type":"address"},{"internalType":"uint8","name":"decimals","type":"uint8"},{"internalType":"string","name":"ticker","type":"string"}],"internalType":"struct IDCADataStructures.TokenData","name":"targetToken","type":"tuple"},{"internalType":"enum IDCADataStructures.Interval","name":"interval","type":"uint8"},{"internalType":"uint256","name":"amount","type":"uint256"},{"internalType":"uint256","name":"strategyId","type":"uint256"},{"internalType":"bool","name":"active","type":"bool"},{"components":[{"internalType":"bytes","name":"reinvestData","type":"bytes"},{"internalType":"bool","name":"active","type":"bool"},{"internalType":"uint8","name":"investCode","type":"uint8"},{"internalType":"address","name":"dcaAccountAddress","type":"address"}],"internalType":"struct IDCADataStructures.Reinvest","name":"reinvest","type":"tuple"}],"internalType":"struct IDCADataStructures.Strategy","name":"newStrategy_","type":"tuple"},{"internalType":"uint256","name":"seedFunds_","type":"uint256"},{"internalType":"bool","name":"subscribeToExecutor_","type":"bool"}],"name":"SetupStrategy","outputs":[],"stateMutability":"nonpayable","type":"function"},{"inputs":[{"internalType":"uint256","name":"strategyId_","type":"uint256"}],"name":"SubscribeStrategy","outputs":[],"stateMutability":"nonpayable","type":"function"},{"inputs":[{"internalType":"uint256","name":"strategyId_","type":"uint256"}],"name":"UnsubscribeStrategy","outputs":[],"stateMutability":"nonpayable","type":"function"},{"inputs":[{"internalType":"uint256","name":"strategyId_","type":"uint256"}],"name":"UnwindReinvest","outputs":[],"stateMutability":"nonpayable","type":"function"},{"inputs":[{"internalType":"address","name":"token_","type":"address"},{"internalType":"uint256","name":"amount_","type":"uint256"}],"name":"WithdrawFunds","outputs":[],"stateMutability":"nonpayable","type":"function"},{"inputs":[{"internalType":"address","name":"token_","type":"address"},{"internalType":"uint256","name":"amount_","type":"uint256"}],"name":"WithdrawSavings","outputs":[],"stateMutability":"nonpayable","type":"function"},{"inputs":[{"internalType":"address","name":"executorAddress_","type":"address"}],"name":"changeExecutor","outputs":[],"stateMutability":"nonpayable","type":"function"},{"inputs":[{"internalType":"address","name":"newLibraryAddress_","type":"address"}],"name":"changeReinvestLibrary","outputs":[],"stateMutability":"nonpayable","type":"function"},{"inputs":[],"name":"getAttachedReinvestLibraryAddress","outputs":[{"internalType":"address","name":"","type":"address"}],"stateMutability":"view","type":"function"},{"inputs":[],"name":"getAttachedReinvestLibraryVersion","outputs":[{"internalType":"string","name":"","type":"string"}],"stateMutability":"view","type":"function"},{"inputs":[{"internalType":"address","name":"token_","type":"address"}],"name":"getBaseBalance","outputs":[{"internalType":"uint256","name":"","type":"uint256"}],"stateMutability":"view","type":"function"},{"inputs":[],"name":"getExecutorAddress","outputs":[{"internalType":"address","name":"","type":"address"}],"stateMutability":"view","type":"function"},{"inputs":[{"internalType":"uint256","name":"strategyId_","type":"uint256"}],"name":"getReinvestTokenBalance","outputs":[{"internalType":"uint256","name":"","type":"uint256"}],"stateMutability":"view","type":"function"},{"inputs":[{"internalType":"uint256","name":"strategyId_","type":"uint256"}],"name":"getStrategyData","outputs":[{"components":[{"internalType":"address","name":"accountAddress","type":"address"},{"components":[{"internalType":"address","name":"tokenAddress","type":"address"},{"internalType":"uint8","name":"decimals","type":"uint8"},{"internalType":"string","name":"ticker","type":"string"}],"internalType":"struct IDCADataStructures.TokenData","name":"baseToken","type":"tuple"},{"components":[{"internalType":"address","name":"tokenAddress","type":"address"},{"internalType":"uint8","name":"decimals","type":"uint8"},{"internalType":"string","name":"ticker","type":"string"}],"internalType":"struct IDCADataStructures.TokenData","name":"targetToken","type":"tuple"},{"internalType":"enum IDCADataStructures.Interval","name":"interval","type":"uint8"},{"internalType":"uint256","name":"amount","type":"uint256"},{"internalType":"uint256","name":"strategyId","type":"uint256"},{"internalType":"bool","name":"active","type":"bool"},{"components":[{"internalType":"bytes","name":"reinvestData","type":"bytes"},{"internalType":"bool","name":"active","type":"bool"},{"internalType":"uint8","name":"investCode","type":"uint8"},{"internalType":"address","name":"dcaAccountAddress","type":"address"}],"internalType":"struct IDCADataStructures.Reinvest","name":"reinvest","type":"tuple"}],"internalType":"struct IDCADataStructures.Strategy","name":"","type":"tuple"}],"stateMutability":"view","type":"function"},{"inputs":[{"internalType":"address","name":"token_","type":"address"}],"name":"getTargetBalance","outputs":[{"internalType":"uint256","name":"","type":"uint256"}],"stateMutability":"view","type":"function"},{"inputs":[{"internalType":"uint256","name":"strategyId_","type":"uint256"}],"name":"getTimeTillWindow","outputs":[{"internalType":"uint256","name":"lastEx","type":"uint256"},{"internalType":"uint256","name":"secondsLeft","type":"uint256"},{"internalType":"bool","name":"checkReturn","type":"bool"}],"stateMutability":"view","type":"function"},{"inputs":[],"name":"owner","outputs":[{"internalType":"address","name":"","type":"address"}],"stateMutability":"view","type":"function"},{"inputs":[],"name":"removeExecutor","outputs":[],"stateMutability":"nonpayable","type":"function"},{"inputs":[],"name":"renounceOwnership","outputs":[],"stateMutability":"nonpayable","type":"function"},{"inputs":[{"internalType":"uint256","name":"strategyId_","type":"uint256"},{"components":[{"internalType":"bytes","name":"reinvestData","type":"bytes"},{"internalType":"bool","name":"active","type":"bool"},{"internalType":"uint8","name":"investCode","type":"uint8"},{"internalType":"address","name":"dcaAccountAddress","type":"address"}],"internalType":"struct IDCADataStructures.Reinvest","name":"reinvest_","type":"tuple"}],"name":"setStrategyReinvest","outputs":[],"stateMutability":"nonpayable","type":"function"},{"inputs":[{"internalType":"address","name":"newOwner","type":"address"}],"name":"transferOwnership","outputs":[],"stateMutability":"nonpayable","type":"function"},{"inputs":[{"internalType":"address","name":"swapRouter_","type":"address"}],"name":"updateSwapAddress","outputs":[],"stateMutability":"nonpayable","type":"function"},{"stateMutability":"payable","type":"receive"}]}